:100000003AC1000055C100005DC1000050C10000B0
:100010004EC100004CC100004AC1000048C10000B0
:1000200046C1000044C1000042C100000C944E0CC7
:100030000C94F30C3CC100003AC100008BC50000D9
:1000400036C1000034C1000032C1000030C10000E0
:100050002EC100002CC100002AC1000028C10000F0
:1000600026C1000024C1000022C1000020C1000000
:100070001EC10000B303FF03CB043504C9043D04D3
:100080004304C904C904C904C904C9044C045E0476
:10009000C904C904C9045504C904C904C904C7046E
:1000A0000904B204C703C903CB03CD03D203D703AA
:1000B000D903CB04DB03DD03DF03E103E303E50343
:1000C000E703EC03EE03F003CB04F203F403FB03BA
:1000D000FD030C0410041B04C9041D041F041F04A9
:1000E0001F041F041F04C904C90425042904C904EA
:1000F000C904C904C904C904C904C9043104C90430
:10010000A504A1049D049904950491048D04890417
:10011000850481047D04770473046F046B048006F6
:100120000809080908090809080908090809080947
:10013000B306E606DA062C0761075507AC06AF06DC
:10014000B6070509EF08C4080509EF08DA0805092C
:10015000F208050905090509050905090509050943
:1001600005090509F2085E0D800D670E800D670E0A
:10017000C50DE60D670E390E4B0E120343005700F6
:100180002D004B006500790065007200000012032D
:100190006500480061004A006F002E0064006500A1
:1001A00000000403090409023E00020100C03209F4
:1001B00004000001020201000524001001042402D1
:1001C000060524060001070582030800FF09040153
:1001D00000020A000000070504021000050705835D
:1001E000021000051201100102000008EB03442078
:1001F00001000102DC01350612060000480700007C
:1002000002051E060D052D0600000A05330621060F
:100210002A0609051F051E051C0518051005000501
:100220000105030507050F05070615060000110562
:1002300000000C061A070202010405040103000174
:1002400004040303000400020E0405030204030275
:100250000102070306040B04020300030101040367
:100260000804060309040D04030400000000000054
:1002700000000D06000011241FBECFEFD4E0DEBF4A
:10028000CDBF11E0A0E0B1E0EAE3FEE102C00590DD
:100290000D92A232B107D9F722E0A2E2B1E001C08B
:1002A0001D92AE3FB207E1F7B8D00C941B0FA8CE59
:1002B0001F920F920FB60F9211240F900FBE0F9046
:1002C0001F9018951F920F920FB60F9211240F9046
:1002D0000FBE0F901F90189584B7877F84BF0FB60D
:1002E000F894A895809160008861809360001092D6
:1002F00060000FBE90E880E00FB6F8949093610024
:10030000809361000FBE8BB18F798BB98AB1806603
:100310008AB98AB18C7F8AB98BB183608BB9209AF4
:10032000289A85B78F7E85BFE0EDF0E080818560FB
:100330008083E1E6F0E0908310828FB780688FBF02
:100340000C943F0C009741F0EFECF7E03197F1F798
:1003500000C000000197F6CF08950F931F93CF932D
:10036000DF9300D0CDB7DEB78C018FE08983C80161
:1003700012D18A83882331F1809101018F7080939B
:10038000E9008091E80080FFF2CF9A818981891786
:1003900090F489818A830FC0C80105D1682F80E05D
:1003A00091E077D78111E3CFC801EBD08091220192
:1003B00090912301C7DF8A819FEF980F9A83811163
:1003C000EBCFD5CF0F900F90DF91CF911F910F9171
:1003D0000895CF93DF9300D0CDB7DEB79FE0998328
:1003E000909101019F709093E9009091E80090FF37
:1003F0000FC02A819981921710F499819A83682FEE
:1004000080E091E046D780912201909123019ADF0C
:100410000F900F90DF91CF91089588EC90E092DFDC
:100420005BDF40E864E571E084ED91E071D040E28B
:100430006AE271E08AE491E06BD088EC90E082DFC0
:100440004DD18AE491E0F8D278948AE090E07ADFA6
:100450001DD310E080E091E084D797FD0FC064EDDC
:1004600071E06FD1813051F4C0E0D0E0CE01BDD059
:10047000B0DF2196C11581E0D807C1F7812F8F71B8
:10048000803129F480E091E057D70E94800E1F5FF1
:1004900084ED91E062DF8AE491E05FDFDBCF80E012
:1004A00091E0D2C680E091E089C7FC0124893589BA
:1004B00046895789209326013093270140932801CC
:1004C0005093290160E177E280E090E00E94AC0E59
:1004D000209322013093230140932401509325015E
:1004E0000895FC01A481B5819D012F5F3F4F8C9140
:1004F0009085915019F49381291B31093583248308
:1005000090872FB7F8949281915092832FBF0895CE
:10051000FC017183608312827783668375836483B1
:100520004383418740870895FC012FB7F8941282D6
:10053000808191819783868395838483838181875A
:1005400080872FBF0895FC01928183819817B8F4AA
:10055000A681B7819D012F5F3F4F6C9381858150AC
:1005600019F48381281B31098187378326839FB73C
:10057000F89482818F5F82839FBF81E0089580E03D
:100580000895FC012281222319F0ABDF90E0089549
:100590008FEF9FEF0895FC0182810895FC01228175
:1005A0008381821B0895DC0112962C9112972223DD
:1005B00039F01496ED91FC911597808190E00895A3
:1005C0008FEF9FEF08958627082E8295807F8025E4
:1005D000092E982F82958F7008268695982789274F
:1005E000880F880F880F8025089540960C94E80E98
:1005F00040960C94F50EAF92BF92CF92DF92EF929D
:10060000FF920F931F93CF93DF93CDB7DEB7609721
:100610000FB6F894DEBF0FBECDBF8EEF93E00E9401
:10062000F00E5C0100E010E0CE0101966C017C014F
:10063000C8010E94E80EF60181936F010F5F1F4F02
:1006400000311105A9F78FEF9FEF87016E01F1E1EE
:10065000CF0ED11CF80161918F01B5DF0C151D057E
:10066000C9F78A159B0511F4000025C08AE08B8329
:100670001A8282E38E87AA24AA94BA2C8701F801F1
:1006800061918F01C5019FDF5C010C151D05B9F754
:10069000670100E010E0F60161916F01C8010E945E
:1006A000F50E0F5F1F4F00311105A9F7B5018EEF51
:1006B00093E00E94070FC701EFD160960FB6F89440
:1006C000DEBF0FBECDBFDF91CF911F910F91FF9085
:1006D000EF90DF90CF90BF90AF9008958CCFCF92E6
:1006E000DF92EF92FF920F931F93CF93DF93EC0172
:1006F0006C0180E1C80ED11C8E01EE24EA94FE2C20
:10070000F80161918F01C7015EDF7C010C151D05A9
:10071000B9F700E010E06991C8010E94F50E0F5F83
:100720001F4F00311105B9F7B7018EEF93E0DF914C
:10073000CF911F910F91FF90EF90DF90CF900C948D
:10074000070FCF93DF93482FE091E0018E2F90E0C9
:100750008831910508F01DC1EB01642FFC01E65CB6
:10076000FF4F0C94CE0E483130F0842FE5D181112B
:1007700012C160EC67C050E0FA013197E731F10532
:1007800020F4EE5AFF4F0C94CE0E81E046C082E07A
:1007900044C083E042C084E040C082E08093E10135
:1007A00085E03BC083E08093E10186E036C087E0CE
:1007B00034C060E1ECC088E030C0BBD1ECC089E05F
:1007C0002CC08AE02AC08BE028C08CE026C08FE0D5
:1007D0008093E1018DE021C08EE01FC08FE01DC03D
:1007E00080E11BC081E119C091D18A3210F461EC23
:1007F000CEC060ECCCC082E110C084E10EC050E0FD
:100800004731510508F0C5C0FA01E759FF4F0C9474
:10081000CE0E4F3F09F4BDC086E18093E001BBC01E
:100820009CE088E10FB6F894A895809360000FBE15
:1008300090936000FFCF66E1AAC085E1EECF1092F1
:10084000E00160E0CE017FDEA6C01092E00181E011
:10085000A3C087E18093E0011092DF011092DE01D6
:100860009AC01092E00162E5EDCF40931002842F10
:1008700067D18EE092E033DF8CC08091E10182305D
:1008800009F06DC060C08091E101823009F45BC065
:10089000833009F064C053C040930F028EE092E0B1
:1008A0001EDF8EE092E0F8D074C0413029F0423073
:1008B00009F071C039D16FC032D16DC08091E101B2
:1008C00090E0FC013197EF30F10508F048C0E058A6
:1008D000FF4F0C94CE0E40930F028EE00BC040935E
:1008E00010028DE007C0409311028CE003C04093DA
:1008F00012028BE08093E1014EC0409313028AE024
:10090000F9CF4093140289E0F5CF4093150288E0B7
:10091000F1CF4093160287E0EDCF4093170286E0B7
:10092000E9CF4093180285E0E5CF4093190284E0B7
:10093000E1CF40931A0283E0DDCF40931B0282E0B7
:10094000D9CF40931C0281E0D5CF40931D02109275
:10095000E1011092E0018EE092E0C1DE1CC0109235
:10096000E10117C08091DE019091DF019C012F5FB2
:100970003F4F3093DF012093DE013ADE8091DE01AC
:100980009091DF018F3F910531F028F002C0CE0138
:10099000DADD1092E00180E0DF91CF910895292FF8
:1009A00033272230310559F02330310569F02130E9
:1009B0003105F9F482E190E024EE31E01EC08EE3CF
:1009C00090E026EA31E019C099278130910541F085
:1009D0008230910541F0892B61F4E2EAF1E005C033
:1009E000EEE8F1E002C0EAE7F1E0849190E09F01D7
:1009F00004C080E090E020E030E0FA013183208301
:100A000008959FED980F9A35A0F49FE9980F9A31B9
:100A100008F48052282F30E021523109220F331F71
:100A2000F901EA50FE4F8491F901E950FE4F94918B
:100A3000089590E080E00895CF93DF93EC0140E1CA
:100A400062EE72E084E092E063DD40E862E672E02C
:100A50008AEF91E05DDD40E461E272E080EF91E0D9
:100A600057DDE1E8F0E0908198609083908191609B
:100A7000908380E49FE19093890080938800D093D5
:100A80002002C0931F02DF91CF910895EFE6F0E0BE
:100A90008081826080830895FC01218123FB662789
:100AA00060F970E022FB442740F950E0207330E009
:100AB000E4E035952795EA95E1F72230310559F0C4
:100AC0002330310551F02130310511F021E006C00D
:100AD0001092E60105C022E001C023E02093E60168
:100AE000672B19F41092610203C021E02093610288
:100AF0004130510521F421E020931F0102C01092E2
:100B00001F01FC0182818093200108958AEF91E00A
:100B100045CD8AEF91E008DD84E092E005CDF9DF74
:100B200061E084E092E00FCDF4DF64E084E092E0E5
:100B30000ACD8AEF91E0F8CC682F8AEF91E003CDDF
:100B4000811102C081E003C0853608F084E68093FD
:100B5000200108951F920F920FB60F921124CF9289
:100B6000DF92EF92FF920F931F932F933F934F9338
:100B70005F936F937F938F939F93AF93BF93EF9305
:100B8000FF93CF93DF9300D0CDB7DEB7289889B11C
:100B900090E080959095869581708A8389B1809543
:100BA000817089838091610281110BC08091E50180
:100BB0009A81880F892B8093E5018091E4019981C6
:100BC0000AC08091E5019981880F892B8093E50106
:100BD0008091E4019A81880F892B8093E4018091B0
:100BE000E5018F3719F410921C0109C08091E501CD
:100BF0008F3F11F481E001C082E080931C0180915D
:100C0000E4018F3719F410921B0109C08091E401AF
:100C10008F3F11F481E001C082E080931B0180913D
:100C20001B01823021F480911C01823019F081E097
:100C30008093ED018091ED01813009F08BC18091AD
:100C40001C01811104C069E080EF91E07CDC80919F
:100C50001B01811122C08091E6018330D9F080917F
:100C6000EB018B3091F4609120012091E9013091EA
:100C7000EA0170E080E699E00E94990E260F371F86
:100C80003093EA012093E90108C06CE080EF91E025
:100C90005ADC03C08FE08093EB0180911C0181300E
:100CA00061F480911B01813041F48091E601833031
:100CB00041F48FE08093EB0104C080911C0180918E
:100CC0001B0180911B01823071F48091E601833019
:100CD00051F48091EB018F3031F480E18093EB018E
:100CE00080EF91E021DCE091EB018E2F90E08131EB
:100CF000910508F08DC2FC01E157FF4F0C94CE0E18
:100D000080EF91E048DC882399F080EF91E039DCB6
:100D10008093EB016091200170E080E29CE10E94F1
:100D2000990E660F771F7093EF016093EE0170C20A
:100D30008091EE019091EF0101979093EF018093E4
:100D4000EE018091EE019091EF01892B09F060C2D4
:100D50001092ED01DEDE5CC28BB18F7958C28BB18F
:100D600080668BB9F4C01092EA011092E9011092EA
:100D7000E8011092E7018BB18F798BB96091200166
:100D800070E020EB34E0C901D4D77093EA0160939E
:100D9000E9016091200170E0C901CBD77093E801AF
:100DA0006093E7018091E9019091EA01892B61F05C
:100DB0008BE078C08BB18F798BB98091E9019091EC
:100DC000EA01892B09F0FFC18AE0B4C08BB18066CB
:100DD0008BB98091E7019091E801892B09F008C255
:100DE00080911C01813089F480911B01813069F070
:100DF0008091E601833009F09CC08091E601823049
:100E000009F097C01092E20194C080911B018130DB
:100E100009F09DC080911C01813009F098C090912B
:100E2000E601933091F09091E601923039F490917F
:100E3000E20191117EC08093E20173C09091E601BE
:100E400091116FC08093E3016CC08091E30188230E
:100E500009F47DC08CE076C01092EA011092E9019D
:100E60001092E8011092E7018BB18F798BB96091F4
:100E7000200170E080E19EE05CD77093EA0160930E
:100E8000E9016091200170E080EB94E052D770930B
:100E9000E8016093E7018091E9019091EA01892BD3
:100EA00071F08EE08093EB018EC18BB18F798BB99D
:100EB0008091E9019091EA01892B09F084C18DE0CC
:100EC00039C08BB180668BB98091E7019091E801C0
:100ED000892B09F08DC180911B01813059F48091DB
:100EE0001C01813039F08091E6018230D1F41092FA
:100EF000E20117C080911B018130F9F480911C013F
:100F00008130D9F49091E601933009F19091E60196
:100F1000923049F49091E201911103C08093E20173
:100F200008C08CE007C09091E601911102C0809347
:100F3000E30189E08093EB016BC18091E301882399
:100F400031F089E08093EB011092E30161C11092CE
:100F5000EB015EC1E091EC018E2F90E083319105B1
:100F600008F053C1FC01E056FF4F18C78BB18066F3
:100F70008BB984E092E00FDB811162C080911F0188
:100F80008130A9F480911D0190911E0197FD0FC041
:100F900060911D0170911E0180911F0290912002AD
:100FA000D2DA8FEF9FEF90931E0180931D018AEF9D
:100FB00091E0F1DA882309F443C08AEF91E0E1DAA5
:100FC000992790931E0180931D0180911D0190919E
:100FD0001E01809781F41092EA011092E90160915C
:100FE000200170E080ED90E2A4D67093E801609358
:100FF000E70167E022C080911D0190911E0101DD93
:10100000092F10E0CC24C394D12CE82EF12C10171A
:1010100098F4C601012E02C0880F991F0A94E2F7C6
:101020008E219F21892B11F064E001C061E084E0F2
:1010300092E089DA1F5FEBCF61E184E092E083DA2E
:1010400084E092E0A8DA882309F4E2C084E092E028
:1010500098DA8093EC018091EC01843009F452C05D
:1010600018F4813029F19DC0873009F475C08131B1
:1010700009F097C01092EA011092E9011092E8017C
:101080001092E7016091200170E020EB34E0C9018B
:1010900050D67093EA016093E9016091200170E0FD
:1010A000C90147D67093E8016093E70182E176C0F9
:1010B0001092EA011092E9011092E8011092E70102
:1010C0008BB18F798BB96091200170E020EB34E017
:1010D000C9012FD67093EA016093E9016091200164
:1010E00070E0C90126D67093E8016093E701809112
:1010F000E9019091EA01892B09F44FC083E08093C4
:10110000EC0161C01092EA011092E9011092E8012D
:101110001092E7018BB18F798BB96091200170E05B
:1011200080E19EE006D67093EA016093E901609148
:10113000200170E080EB94E0FCD57093E8016093AF
:10114000E7018091E7019091E801892B09F445C0FE
:1011500086E08093EC014CC01092EA011092E90104
:101160001092E8011092E7011092EA011092E90151
:101170006091200170E080ED90E2DBD57093E80192
:101180006093E70188E00AC08BB18F798BB98091B9
:10119000E9019091EA01892BB1F482E08093EC019E
:1011A00037C01092EA011092E9011092E801109202
:1011B000E70128C08BB18F798BB98091E9019091BB
:1011C000EA01892B51F08091E9019091EA010197A0
:1011D0009093EA018093E9011BC085E0DFCF8BB1DA
:1011E00080668BB98091E7019091E801892B51F0DD
:1011F0008091E7019091E80101979093E801809335
:10120000E70106C01092EC0103C08BB180668BB978
:10121000289A0F900F90DF91CF91FF91EF91BF919E
:10122000AF919F918F917F916F915F914F913F917E
:101230002F911F910F91FF90EF90DF90CF900F9023
:101240000FBE0F901F901895CF93DF93EC01FC0118
:1012500070968BE0DF011D928A95E9F782E08C831E
:10126000898783E08E8761E0CE0101963AD2882398
:1012700061F061E0CE01069634D2882331F061E05E
:10128000CE010B96DF91CF912CC280E0DF91CF9100
:1012900008950F931F93CF932EB32430F9F4FC01DC
:1012A0000489158926893789012B022B032BB1F07C
:1012B000C62F81818F708093E9008091E80085FFBF
:1012C00004C0C093F10080E00AC08091E8008E77EE
:1012D0008093E8006CD28823A1F301C082E0CF9113
:1012E0001F910F9108952EB3243021F5FC014489FC
:1012F000558966897789452B462B472BD9F0818103
:101300008F708093E9008091F200882389F090919A
:10131000E8008091E8008E778093E80095FD08C092
:1013200046D2811108C08091E8008E778093E80052
:1013300080E0089582E008952EB3243089F4FC0102
:101340004489558966897789452B462B472B41F07F
:1013500021812F702093E9002091E80020FDC3CF68
:1013600008952EB3243019F08FEF9FEF0895FC01FC
:101370004489558966897789452B462B472BA1F3EC
:1013800086818F708093E9008091E80082FFECCF26
:101390008091F200882321F02091F10030E002C01A
:1013A0002FEF3FEF8091F200811105C08091E8009E
:1013B0008B778093E800C90108950895CF93DF9358
:1013C000EC018091E80083FFA6C0888190E0209125
:1013D000FA023091FB022817390709F09CC080916E
:1013E000F702813261F020F4803209F43EC093C0EC
:1013F000823209F46CC0833209F47DC08CC08091C4
:10140000F602813A09F087C08091E800877F8093D7
:10141000E8008091E80080FFFCCF8C899D89AE892F
:10142000BF898093F100492F5A2F6B2F7727409364
:10143000F100AD01662777274093F1008B2F9927A4
:10144000AA27BB278093F100888D8093F100898DB6
:101450008093F1008A8D8093F1008091E8008E776F
:101460008093E800DF91CF9185C18091F6028132AF
:1014700009F051C08091E800877F8093E800809157
:10148000E80082FD04C08EB38111F9CF44C03091D1
:10149000F1002091F1009091F1008091F1003C8BDE
:1014A0002D8B9E8B8F8B8091F100888F8091F10026
:1014B000898F8091F1008A8F8091E8008B778093EB
:1014C000E80058D1CE01DF91CF910C945502809164
:1014D000F602813201F58091E800877F8093E80071
:1014E00049D18091F8029091F902998B888BCE01B5
:1014F000DF91CF9162CF8091F602813261F48091C9
:10150000E800877F8093E80035D16091F802CE0132
:10151000DF91CF9152CFDF91CF9108952091FC02BE
:101520003091FD022617370748F06115710539F42F
:101530002091E8002E772093E80001C0B90140E037
:101540006115710579F12EB32223E1F12530E1F126
:101550002091E80023FD34C02091E80022FD2AC03C
:101560002091E80020FFECCF2091F20030E0FC0158
:10157000CF016115710559F02830310540F4819192
:101580008093F100615071092F5F3F4FF1CF41E02F
:101590002830310509F040E02091E8002E772093B3
:1015A000E800CECF4111CFCF05C08EB3882351F0D4
:1015B000853051F08091E80082FFF7CF80E00895F8
:1015C00081E0089582E0089583E008952091FC026F
:1015D0003091FD022617370748F06115710539F47F
:1015E0002091E8002E772093E80001C0B901FC01AA
:1015F00020E06115710561F18EB38823C9F1853052
:10160000C9F18091E80083FD31C08091E80082FD3E
:1016100027C08091E80080FFECCF8091F20090E03D
:101620006115710559F08830910540F4249120939B
:10163000F1003196615071090196F2CF21E00897CF
:1016400009F020E08091E8008E778093E800D1CF08
:101650002111D2CF05C08EB3882351F0853051F0CF
:101660008091E80082FFF7CF80E0089581E008953F
:1016700082E0089583E00895982F953058F590936F
:10168000E900981739F07091EC002091ED0050912D
:10169000F00003C0242F762F50E021FF19C03091B5
:1016A000EB003E7F3093EB003091ED003D7F3093B7
:1016B000ED003091EB0031603093EB007093EC0063
:1016C0002093ED005093F0002091EE0027FF07C01B
:1016D0009F5FD3CF8F708093E90081E0089580E011
:1016E0000895EF92FF920F931F93CF93DF93E62E0F
:1016F000EC018C010C5F1F4FF12CFE1499F19881C5
:10170000992359F1F801208169817A8131973081DB
:10171000892F8F70853010F080E025C0223010F4C2
:1017200042E001C046E0E8E0F0E020E0E617F7071D
:1017300020F42F5FEE0FFF1FF9CF2295207F422B61
:10174000232F2295220F220F207C991F9927991F62
:10175000622F692B91DF8823F9F2F39425960B5FB2
:101760001F4FCBCF81E0DF91CF911F910F91FF9061
:10177000EF9008958091F60287FF0FC08091E800F6
:1017800082FD04C08EB38111F9CF10C08091E800B2
:101790008B770AC08EB3882349F08091E80080FFE0
:1017A000F9CF8091E8008E778093E800089520912A
:1017B000E4003091E50095E64091EC00842F8170C3
:1017C00040FF21C08091E80080FD1BC08EB38823BC
:1017D00091F0853091F08091EB0085FD10C0409133
:1017E000E4005091E5004217530731F39A019150FC
:1017F00019F784E0089582E0089583E0089581E078
:10180000089580E008954091E80042FFDFCF0895F9
:101810003FD041D08091D8008F778093D8008091BD
:10182000D80080688093D8008091D8008F7D809305
:10183000D80019BC82E089BD09B400FEFDCF1EBAF4
:101840001092F2021092F4021092F30242E060E071
:1018500080E012DF8091E1008E7F8093E100809133
:10186000E20081608093E2008091E20088608093D2
:10187000E2008091E0008E7F8093E0000895E3E62F
:10188000F0E080818E7F808381E08093F502C0CF7D
:101890001092E20008951092E10008951F920F92B5
:1018A0000FB60F9211242F933F934F935F936F9333
:1018B0007F938F939F93AF93BF93EF93FF93809109
:1018C000E10082FF0AC08091E20082FF06C08091A1
:1018D000E1008B7F8093E10012D28091E10080FFD4
:1018E00016C08091E20080FF12C08091E2008E7FDE
:1018F0008093E2008091E20080618093E200809119
:10190000D80080628093D80019BC1EBAF8D18091AB
:10191000E10084FF2DC08091E20084FF29C019BC42
:1019200082E089BD09B400FEFDCF8091D8008F7D93
:101930008093D8008091E1008F7E8093E1008091B8
:10194000E2008F7E8093E2008091E20081608093CC
:10195000E2008091F202882311F084E007C08091B8
:10196000E30087FD02C081E001C083E08EBBC7D1E8
:101970008091E10083FF26C08091E20083FF22C0B6
:101980008091E100877F8093E10082E08EBB10921E
:10199000F2028091E1008E7F8093E1008091E2006D
:1019A0008E7F8093E2008091E20080618093E2006C
:1019B00042E060E080E060DE8091F000886080932B
:1019C000F0009DD1FF91EF91BF91AF919F918F91C9
:1019D0007F916F915F914F913F912F910F900FBE2B
:1019E0000F901F9018951F920F920FB60F9211240F
:1019F0002F933F934F935F936F937F938F939F9317
:101A0000AF93BF93CF93DF93EF93FF93C091E90020
:101A1000CF708091EC00D82FD17080FDD0E810926B
:101A2000E9008091F000877F8093F00078941ED0C9
:101A30001092E9008091F00088608093F000CD2B37
:101A4000CF70C093E900FF91EF91DF91CF91BF91EB
:101A5000AF919F918F917F916F915F914F913F9146
:101A60002F910F900FBE0F901F9018951F93CF933B
:101A7000DF93CDB7DEB7AA970FB6F894DEBF0FBEDF
:101A8000CDBFE6EFF2E088E08E0F9091F1009193E8
:101A90008E13FBCF0E9452028091E80083FF17C192
:101AA0008091F6029091F702492F50E04A3051059B
:101AB00008F00DC1FA01ED54FF4F70C1803881F07C
:101AC000823809F004C18091FA028F708093E90096
:101AD0008091EB0085FB882780F91092E90006C011
:101AE0008091F3029091F402911182609091E8004C
:101AF000977F9093E8008093F1001092F100C4C0AA
:101B0000282F2D7F09F0E3C0882319F0823061F07F
:101B1000DEC08091F802813009F0D9C0933009F01D
:101B200080E08093F4022BC08091F802811127C0DD
:101B30008091FA028F7009F4CAC08093E900209165
:101B4000EB0020FF1CC0933021F48091EB008062F9
:101B500014C09091EB0090619093EB0021E030E095
:101B6000A90102C0440F551F8A95E2F74093EA008D
:101B70001092EA008091EB0088608093EB00109255
:101B8000E9008091E800877F82C08111A0C0109198
:101B9000F8021F778091E3008078812B8093E30027
:101BA0008091E800877F8093E800E4DD8091E80081
:101BB00080FFFCCF8091E30080688093E3001111E7
:101BC00002C082E001C083E08EBB81C080588230B9
:101BD00008F07DC08091F8029091F9028C3D53E0AD
:101BE000950771F583E08A838AE289834FB7F89479
:101BF000DE01139620E03EE051E2E32FF0E0509347
:101C00005700E49120FF03C0E295EF703F5FEF7053
:101C10008E2F90E0EA3010F0C79601C0C0968D93E9
:101C20009D932F5F243149F74FBF8091E800877F54
:101C30008093E8006AE270E0CE0101966FDC13C089
:101C4000AE014F5F5F4F6091FA020E94CF04BC016A
:101C5000892B09F43CC09091E800977F9093E800AD
:101C600089819A81B3DC8091E8008B778093E800CA
:101C70002EC0803861F58091E800877F8093E8006E
:101C80008091F2028093F1008091E8008E7780933A
:101C9000E80070DD1CC081111AC09091F8029230EA
:101CA000B0F48091E800877F8093E8009093F2027F
:101CB00061DD8091F202811106C08091E30087FD11
:101CC00002C081E001C084E08EBB0E944F0280917F
:101CD000E80083FF0AC08091E800877F8093E800D6
:101CE0008091EB0080628093EB00AA960FB6F89487
:101CF000DEBF0FBECDBFDF91CF911F910895089534
:101D0000CF938EB3882399F0C091E900CF70909162
:101D1000EC00892F817090FD80E8C82B1092E900BB
:101D20008091E80083FDA2DECF70C093E900CF91DF
:101D3000089597FB072E16F4009406D077FD08D07F
:101D400033D007FC05D03EF4909581959F4F0895C0
:101D5000709561957F4F0895A1E21A2EAA1BBB1BB7
:101D6000FD010DC0AA1FBB1FEE1FFF1FA217B30767
:101D7000E407F50720F0A21BB30BE40BF50B661F7D
:101D8000771F881F991F1A9469F760957095809541
:101D900090959B01AC01BD01CF010895EE0FFF1F8F
:101DA0000590F491E02D0994AA1BBB1B51E107C0DB
:101DB000AA1FBB1FA617B70710F0A61BB70B881FDB
:101DC000991F5A95A9F780959095BC01CD0108956A
:101DD000F999FECF92BD81BDF89A992780B50895F3
:101DE000A8E1B0E042E050E018C0262FF999FECFFC
:101DF00092BD81BDF89A019700B4021639F01FBA5E
:101E000020BD0FB6F894FA9AF99A0FBE089501967C
:101E1000272FECDFEACFDC01CB01FC01F999FECFE3
:101E200006C0F2BDE1BDF89A319600B40D92415062
:0A1E30005040B8F70895F894FFCF72
:101E3A000083100000010410000001820800000164
:101E4A0000000000000000000000000202FFFF0185
:021E5A000A007C
:00000001FF
